:020000040800F2
:100000000050002091140008A1130008A713000855
:10001000AD130008B3130008B91300080000000076
:10002000000000000000000000000000BF130008F6
:10003000CB13000800000000D7130008E3130008EA
:10004000D9140008D9140008D9140008D9140008DC
:10005000D9140008D9140008D9140008D9140008CC
:10006000D9140008D9140008D9140008D9140008BC
:10007000D9140008D9140008D9140008D9140008AC
:10008000D9140008D9140008D9140008D91400089C
:10009000D9140008D9140008D9140008D91400088C
:1000A000D9140008D9140008D9140008D91400087C
:1000B000F113000805140008D9140008D914000829
:1000C000D9140008D9140008D9140008D91400085C
:1000D000D9140008D9140008D9140008D91400084C
:1000E000D9140008D9140008D91400080000000031
:1000F0000000000000000000000000000000000000
:0C01000000000000000000005FF808F1A3
:10010C0010B5054C237833B9044B13B10448AFF345
:10011C0000800123237010BD180100200000000096
:10012C00443E000808B5034B1BB103490348AFF329
:10013C00008008BD000000001C010020443E0008A7
:10014C0080B483B000AF7860094A7B6852F82330E2
:10015C00012B06D1064A7B68002142F823100123AB
:10016C0000E0002318460C37BD4680BC704700BF2A
:10017C003401002080B582B000AF00237B6075E0B5
:10018C003E4A7B6852F823203D497B6841F8232086
:10019C003C4A7B6852F8232038497B6841F823207D
:1001AC00394A7B6852F8232038497B6831F8133080
:1001BC001946104601F0A4FC03461946314A7B68E7
:1001CC0042F823102E4A7B6852F823202B497B6877
:1001DC0051F823309A4246D1284A7B6852F82320A2
:1001EC0028497B6851F823309A423CD1284A7B68D5
:1001FC0052F8232023497B6851F823309A4219D0B6
:10020C00204A7B6852F8232021497B6841F823203F
:10021C001C4A7B6852F82330002B24D11D4A7B6882
:10022C00012142F823101C4A7B684FF4967142F866
:10023C00231018E0184A7B6852F823305A1E1649CE
:10024C007B6841F82320144A7B6852F82330002B3A
:10025C0009D10F4A7B68012142F823100F4A7B68B1
:10026C00012142F823107B6801337B607B68032BF0
:10027C0086DD00BF00BF0837BD4680BD10000020E2
:10028C000000002020000020480000205800002022
:10029C003000002034010020980000204401002090
:1002AC0080B582B000AF786039607B68202B2BD092
:1002BC007B68202B39DC7B681E2B03D07B681F2BC3
:1002CC0011D032E03C4B1B683C4A11880022184686
:1002DC0001F02DFC384B5B68384A518801221846D6
:1002EC0001F025FC22E0344B1B68344A11880122B2
:1002FC00184601F01CFC304B5B68304A51880122D7
:10030C00184601F014FC11E02B4B1B682B4A11888A
:10031C000122184601F00BFC274B5B68274A5188D9
:10032C000022184601F003FC00E000BF3B68202BC4
:10033C002BD03B68202B39DC3B681E2B03D03B6851
:10034C001F2B11D032E01C4B9B681C4A9188002259
:10035C00184601F0ECFB184BDB68184AD1880122D7
:10036C00184601F0E4FB22E0134B9B68134A91887A
:10037C000122184601F0DBFB0F4BDB680F4AD188DA
:10038C000122184601F0D3FB11E00B4B9B680B4A82
:10039C0091880122184601F0CAFB074BDB68074A1B
:1003AC00D1880022184601F0C2FB00E000BF00BF5C
:1003BC000837BD4680BD00BF6000002078000020DB
:1003CC0080B582B000AF78607B681E3B032B4FD8A2
:1003DC0001A252F823F000BFF5030008170400082F
:1003EC00390400085B040008244B1B69244A11895A
:1003FC000022184601F09BFB204B5B69204A518977
:10040C000122184601F093FB33E01C4B1B691C4A7C
:10041C0011890122184601F08AFB184B5B69184AB6
:10042C0051890122184601F082FB22E0134B1B6913
:10043C00134A11890122184601F079FB0F4B5B69B5
:10044C000F4A51890022184601F071FB11E00B4B49
:10045C001B690B4A11890022184601F068FB074BF7
:10046C005B69074A51890022184601F060FB00E0E5
:10047C0000BF00BF0837BD4680BD00BF6000002034
:10048C007800002084B080B500AF07F1080C8CE830
:10049C000F001B4B1A68BB685A631A4B1B68184633
:1004AC0001F078F8BB6800225A63164B1B6818469B
:1004BC0001F070F8124B1A68134B1B681344104A66
:1004CC0013600F4B1B68B3F57A7F03DD0E4B1B6873
:1004DC000B4A13600B4B1A680C4B1B68D31A094A56
:1004EC001360084B1B68002B03DC064B4FF47A722D
:1004FC001A6000BFBD46BDE8804004B0704700BF25
:10050C0054010020440000205C0100205801002010
:10051C0080B582B000AF78607B68104A82FB031212
:10052C009210DB17D01A7A680C4B83FB02139910CC
:10053C00D317C91A0B469B000B445B00D11A0B4610
:10054C0002460749074803F03DF86422054906486E
:10055C0002F0CBFE00BF0837BD4680BD67666666FD
:10056C005C3E0008D40100209001002080B500AF53
:10057C008B4B1B680A3B042B00F2078101A252F83B
:10058C0023F000BFA5050008C505000835060008C6
:10059C00AF0600081D070008824B1B681946002097
:1005AC0000F0B6FD804B1B681946012000F0B0FD31
:1005BC007B4B0B221A60F1E07A4B1B681846FFF755
:1005CC00A7FF20211E20FFF76BFE784B5B68012BE9
:1005DC0008D1774B1B681946012000F099FD704B30
:1005EC000C221A600120FFF7ABFD0346002B02D052
:1005FC006B4B0F221A600220FFF7A2FD0346002B63
:10060C0007D0674B13221A604FF47A71022000F066
:10061C007FFD0320FFF794FD0346002B00F0B7800D
:10062C00644B15221A60B2E05E4B1B681846FFF74C
:10063C006FFF1F211E20FFF733FE5C4B5B68012B05
:10064C000ED1594B1B681946002000F061FD554B2B
:10065C001B681946012000F05BFD514B0D221A60FE
:10066C000120FFF76DFD0346002B02D04C4B0F22EF
:10067C001A600220FFF764FD0346002B07D0484B9D
:10068C0013221A604FF47A71022000F041FD03200E
:10069C00FFF756FD0346002B7BD0464B15221A6004
:1006AC0077E0414B1B681846FFF732FF1E212020D4
:1006BC00FFF7F6FD3D4B1B68012B08D13C4B1B682B
:1006CC001946002000F024FD354B0E221A60012043
:1006DC00FFF736FD0346002B02D0314B0F221A6078
:1006EC000220FFF72DFD0346002B07D02C4B1322C5
:1006FC001A604FF47A71022000F00AFD0320FFF714
:10070C001FFD0346002B46D02A4B15221A6042E0EF
:10071C00274B1B681846FFF7FBFE1E211F20FFF717
:10072C00BFFD224B1B68012B0ED11E4B1B681946BB
:10073C00002000F0EDFC1C4B1B681946012000F05A
:10074C00E7FC174B0B221A600120FFF7F9FC03465C
:10075C00002B02D0124B0F221A600220FFF7F0FC84
:10076C000346002B07D00E4B13221A604FF47A71FC
:10077C00022000F0CDFC0320FFF7E2FC0346002B27
:10078C000BD00C4B15221A6007E000BF06E000BF2F
:10079C0004E000BF02E000BF00E000BF00BF80BD6E
:1007AC00840000208C0000209400002060010020B8
:1007BC00900000208800002080B500AF734B1B68B0
:1007CC000F3B032B00F2D78001A252F823F000BF9D
:1007DC00ED0700085B08000825090008B9080008A7
:1007EC0020211E20FFF75CFD0020FFF7A9FC03462B
:1007FC00002B07D0654B10221A604FF49671002025
:10080C0000F086FC0120FFF79BFC0346002B0ED06A
:10081C005E4B0B221A605E4B1B681946002000F0E1
:10082C0077FC5C4B1B681946012000F071FC022020
:10083C00FFF786FC0346002B00F09F80534B1322DE
:10084C001A604FF47A71022000F062FC95E01F21CF
:10085C001E20FFF725FD504B1B68012B02D14B4B83
:10086C0012221A600120FFF76BFC0346002B0ED0FE
:10087C00464B0C221A60464B1B681946002000F0B0
:10088C0047FC464B1B681946012000F041FC022036
:10089C00FFF756FC0346002B71D03C4B13221A6019
:1008AC004FF47A71022000F033FC68E01E21202006
:1008BC00FFF7F6FC0020FFF743FC0346002B07D0A4
:1008CC00324B11221A604FF49671002000F020FC7C
:1008DC000120FFF735FC0346002B0ED02B4B0D22CD
:1008EC001A602C4B1B681946002000F011FC284B99
:1008FC001B681946012000F00BFC0220FFF720FCBE
:10090C000346002B3DD0214B13221A604FF47A7111
:10091C00022000F0FDFB34E01E211F20FFF7C0FC7D
:10092C001D4B1B68012B02D1184B0F221A600120A2
:10093C00FFF706FC0346002B0ED0144B0E221A6058
:10094C00164B1B681946002000F0E2FB104B1B688D
:10095C001946012000F0DCFB0220FFF7F1FB0346F7
:10096C00002B10D0094B13221A604FF47A7102201D
:10097C0000F0CEFB07E000BF06E000BF04E000BFC4
:10098C0002E000BF00E000BF00BF80BD840000207B
:10099C008C000020940000206001002090000020BA
:1009AC0080B500AF5D4B1B68132B02D0142B55D0B8
:1009BC00B1E01E211E20FFF773FC594B9B68012BE5
:1009CC0005D1564B0A221A60022000F0B9FB002018
:1009DC00FFF7B6FB0346002B10D0524B1B680133BC
:1009EC00504A13604F4B1B68632B02DD4D4B0122A9
:1009FC001A604FF47A71022000F08AFB0120FFF795
:100A0C009FFB0346002B10D0464B1B68013B454A0D
:100A1C001360444B1B68002B02DC424B63221A60B0
:100A2C004FF47A71022000F073FB0220FFF788FB71
:100A3C000346002B6CD03B4B1B68642202FB03F378
:100A4C00394A1360374B01221A60344B14221A6056
:100A5C004FF47A71022000F05BFB59E01F211F203C
:100A6C00FFF71EFC2E4B9B68012B05D12B4B0B2249
:100A7C001A60022000F064FB0020FFF761FB0346C4
:100A8C00002B10D0274B1B680133264A1360254BD3
:100A9C001B68632B02DD234B01221A604FF47A7121
:100AAC00022000F035FB0120FFF74AFB0346002B28
:100ABC0010D01C4B1B68013B1A4A1360194B1B6866
:100ACC00002B02DC174B63221A604FF47A71022060
:100ADC0000F01EFB0220FFF733FB0346002B19D05E
:100AEC00104B1B68642202FB03F3104A13600E4B7D
:100AFC001A680E4B1B68D31A0D4A1360094B01225E
:100B0C001A60064B0A221A60022000F019FB01E061
:100B1C0000BF00E000BF00BF80BD00BF840000200C
:100B2C0060010020400000208C000020900000207C
:100B3C009400002084B0B0B58EB00EAF07F1100455
:100B4C0084E80F00704B1B68153B042B00F2CE8021
:100B5C0001A252F823F000BF870B0008170C000805
:100B6C00F90C00089F0C0008790B00082120FFF7F6
:100B7C0027FC664B00221A60BFE0654B1B680B2BF1
:100B8C0003D0634B1B680C2B26D15F4B18221A60C9
:100B9C00604B1B68604A82FB03125211DB17D31A9D
:100BAC004FF47A7292FBF3F35C4A1360594B1B6857
:100BBC00594A82FB03125211DB17D31A4FF47A7283
:100BCC0092FBF3F3564A1360504B00221A60554BBC
:100BDC004FF47A721A608BE04D4B1B680D2B04D0CE
:100BEC004B4B1B680E2B40F08380474B16221A6030
:100BFC004A4B00221A604A4B00221A60434B0022D7
:100C0C001A60484B00221A6072E01E20FFF7D8FBD6
:100C1C003E4B00221A600320FFF792FA0346002B8A
:100C2C0002D03B4B0A221A60394B1B680B2B03D0AA
:100C3C00374B1B680C2B5DD1334B18221A603A4B87
:100C4C001B681946032000F063FA324B1B68324ACA
:100C5C0082FB03125211DB17D31A4FF47A7292FBF8
:100C6C00F3F32E4A13602B4B1B682B4A82FB0312A7
:100C7C005211DB17D31A4FF47A7292FBF3F3284A12
:100C8C001360224B00221A60264B4FF47A721A60C2
:100C9C0030E02020FFF794FB6D4607F120040FCCC9
:100CAC000FC50FCC0FC50FCC0FC594E8030085E81A
:100CBC00030007F110030FCBFFF7E4FB0020FFF755
:100CCC003FFA0346002B05D0114B0A221A600F4B3A
:100CDC0000221A600E4B1B680E2B03D00C4B1B68AA
:100CEC000D2B09D1084B19221A6005E000BF04E056
:100CFC0000BF02E000BF00E000BF00BFBD46BDE882
:100D0C00B04004B0704700BF8800002054010020A0
:100D1C0084000020700100201F85EB515801002039
:100D2C005C0100204400002094000020F0B58FB03E
:100D3C000EAF00F0CDFB00F039F800F065F900F0D3
:100D4C0039F900F075F800F0BFF8144801F072FBA7
:100D5C00134801F06FFB0021114801F015FC012232
:100D6C001049114802F005FBFFF700FCFFF724FDCA
:100D7C00FFF716FE0A4E6D4606F110040FCC0FC598
:100D8C000FCC0FC50FCC0FC594E8030085E803000A
:100D9C0096E80F00FFF7CEFEE6E700BF50020020FA
:100DAC0008020020800100209001002080B590B046
:100DBC0000AF07F1180328220021184602F0FAFBB5
:100DCC003B1D00221A605A609A60DA601A61022395
:100DDC00BB610123BB621023FB6202237B630023F4
:100DEC00BB634FF46013FB6307F11803184600F064
:100DFC00B7FE0346002B01D000F085F90F237B6072
:100E0C000223BB600023FB604FF480633B61002333
:100E1C007B613B1D0221184601F022F90346002B91
:100E2C0001D000F070F900BF4037BD4680BD000016
:100E3C0080B586B000AF07F1080300221A605A6033
:100E4C009A60DA603B4600221A605A601D4B4FF0E4
:100E5C0080421A601B4B3F225A601A4B00229A6048
:100E6C00184B42F20F72DA60164B00221A61154BC6
:100E7C0000229A61134801F08DFA0346002B01D031
:100E8C0000F041F94FF48053BB6007F10803194699
:100E9C000C4801F0E1FD0346002B01D000F033F9C2
:100EAC0000233B6000237B603B461946054802F05B
:100EBC005FF90346002B01D000F025F900BF18376D
:100ECC00BD4680BD5002002080B58EB000AF07F14A
:100EDC00280300221A605A609A60DA6007F1200336
:100EEC0000221A605A603B1D00221A605A609A60F8
:100EFC00DA601A615A619A612C4B2D4A1A602B4B9D
:100F0C003F225A60294B00229A60284B40F2E7326C
:100F1C00DA60264B00221A61244B00229A61234886
:100F2C0001F038FA0346002B01D000F0ECF84FF436
:100F3C008053BB6207F1280319461C4801F08CFD55
:100F4C000346002B01D000F0DEF8184801F0C4FA7B
:100F5C000346002B01D000F0D6F800233B6200239F
:100F6C007B6207F120031946104802F001F9034691
:100F7C00002B01D000F0C7F860237B600023BB601E
:100F8C000023FB6000237B613B1D002219460748B0
:100F9C0001F0A4FC0346002B01D000F0B4F8034888
:100FAC0000F088F900BF3837BD4680BD080200202C
:100FBC000004004080B500AF114B124A1A60104B70
:100FCC004FF416525A600E4B00229A600C4B0022C2
:100FDC00DA600B4B00221A61094B0C225A61084B48
:100FEC0000229A61064B0022DA61054802F030F9C2
:100FFC000346002B01D000F086F800BF80BD00BF77
:10100C00900100200044004080B586B000AF07F18D
:10101C00080300221A605A609A60DA602E4B9B69B2
:10102C002D4A43F0040393612B4B9B6903F004039B
:10103C007B607B68284B9B69274A43F008039361CC
:10104C00254B9B6903F008033B603B6800224FF47F
:10105C008761224800F06BFD00224FF4A06120480C
:10106C0000F065FD1323BB600023FB6001233B6193
:10107C0007F1080319461A4800F0BEFB0123BB60B8
:10108C000023FB6001233B6107F108031946134859
:10109C0000F0B2FB4FF48763BB600123FB600023BD
:1010AC003B6102237B6107F1080319460B4800F0F2
:1010BC00A3FB4FF4A063BB600123FB6000233B61E7
:1010CC0002237B6107F108031946054800F094FBE5
:1010DC0000BF1837BD4680BD00100240000C014017
:1010EC000008014080B582B000AF78607B681B6857
:1010FC00B3F1804F03D100F03BF8FFF73BF800BF92
:10110C000837BD4680BD80B400AF72B600BFFEE7A5
:10111C0080B483B000AF78603960074A7B680021E7
:10112C0042F8231005497B683A6841F8232000BF38
:10113C000C37BD4680BC7047600100207001002058
:10114C0080B483B000AF7860074A7B68002142F816
:10115C002310064A7B68002142F8231000BF0C378D
:10116C00BD4680BC704700BF6001002070010020AC
:10117C0080B483B000AF00237B601CE0124A7B6814
:10118C0052F82330002B13DD0F4A7B6852F82330C2
:10119C005A1E0D497B6841F823200B4A7B6852F894
:1011AC002330002B04D1094A7B68012142F823101B
:1011BC007B6801337B607B68032BDFDD00BF00BFE6
:1011CC000C37BD4680BC70477001002060010020C8
:1011DC0080B485B000AF154B9B69144A43F00103F2
:1011EC009361124B9B6903F00103BB60BB680F4B0F
:1011FC00DB690E4A43F08053D3610C4BDB6903F07F
:10120C0080537B607B680A4B5B68FB60FB6823F058
:10121C00E063FB60FB6843F00073FB60044AFB680F
:10122C00536000BF1437BD4680BC704700100240AD
:10123C000000014080B584B000AF78607B681B680B
:10124C00B3F1804F14D1194BDB69184A43F00103F9
:10125C00D361164BDB6903F00103FB60FB680022D2
:10126C0000211C2000F091FA1C2000F0AAFA18E0D2
:10127C007B681B680E4A934213D10C4BDB690B4AFB
:10128C0043F00203D361094BDB6903F00203BB603B
:10129C00BB68002200211D2000F077FA1D2000F011
:1012AC0090FA00BF1037BD4680BD00BF0010024051
:1012BC000004004080B588B000AF786007F11003DF
:1012CC0000221A605A609A60DA607B681B680F4AC9
:1012DC00934217D10E4B9B690D4A43F00403936163
:1012EC000B4B9B6903F00403FB60FB6840233B61E1
:1012FC0002237B610223FB6107F1100319460548A9
:10130C0000F07AFA00BF2037BD4680BD00040040D3
:10131C00001002400008014080B588B000AF786032
:10132C0007F1100300221A605A609A60DA607B6839
:10133C001B68154A934223D1144BDB69134A43F4BF
:10134C000033D361114BDB6903F40033FB60FB68A2
:10135C000E4B9B690D4A43F0040393610B4B9B6945
:10136C0003F00403BB60BB680C233B6102237B616D
:10137C000223FB6107F110031946054800F03CFA03
:10138C0000BF2037BD4680BD004400400010024025
:10139C000008014080B400AFFEE780B400AFFEE768
:1013AC0080B400AFFEE780B400AFFEE780B400AFBE
:1013BC00FEE780B400AF00BFBD4680BC704780B470
:1013CC0000AF00BFBD4680BC704780B400AF00BF0B
:1013DC00BD4680BC704780B500AF00F0BFF800BFC1
:1013EC0080BD000080B500AF024801F06FF900BF6E
:1013FC0080BD00BF5002002080B500AF024801F054
:10140C0065F900BF80BD00BF0802002080B586B022
:10141C0000AF7860144A154BD31A7B617B693B6132
:10142C00134B1B68002B02D1114B124A1A60104B44
:10143C001A687B6813443A699A4207D202F090F812
:10144C0003460C221A604FF0FF3309E0084B1B686F
:10145C00FB60074B1A687B681344054A1360FB68F2
:10146C0018461837BD4680BD00500020000400000F
:10147C0084010020B002002080B400AF00BFBD4644
:10148C0080BC70470C480D490D4A002302E0D4582B
:10149C00C4500433C4188C42F9D30A4A0A4C0023B2
:1014AC0001E013600432A242FBD3FFF7E5FF02F028
:1014BC005DF8FFF73BFC704700000020180100208E
:1014CC00D03E000818010020AC020020FEE700000E
:1014DC0080B500AF084B1B68074A43F0100313603C
:1014EC00032000F047F9002000F008F8FFF770FE29
:1014FC000023184680BD00BF0020024080B582B09A
:10150C0000AF7860124B1A68124B1B7819464FF4D7
:10151C007A73B3FBF1F3B2FBF3F3184600F05FF907
:10152C000346002B01D001230EE07B680F2B0AD859
:10153C00002279684FF0FF3000F027F9064A7B68EB
:10154C001360002300E0012318460837BD4680BD18
:10155C00A8000020B0000020AC00002080B400AF38
:10156C00054B1B781A46054B1B681344034A136042
:10157C0000BFBD4680BC7047B00000209802002020
:10158C0080B400AF024B1B681846BD4680BC704748
:10159C009802002080B584B000AF7860FFF7F0FFB0
:1015AC00B8607B68FB60FB68B3F1FF3F05D00A4B6A
:1015BC001B781A46FB681344FB6000BFFFF7E0FF83
:1015CC000246BB68D31AFA689A42F7D800BF00BF2C
:1015DC001037BD4680BD00BFB000002080B485B080
:1015EC0000AF78607B6803F00703FB600C4BDB6893
:1015FC00BB60BA684FF6FF031340BB60FB681A026E
:10160C00BB68134343F0BF6343F40033BB60044A2D
:10161C00BB68D36000BF1437BD4680BC704700BFA9
:10162C0000ED00E080B400AF044BDB681B0A03F054
:10163C0007031846BD4680BC704700BF00ED00E0B4
:10164C0080B483B000AF0346FB7197F90730002BD1
:10165C000BDBFB7903F01F02064997F907305B0996
:10166C00012000FA02F241F8232000BF0C37BD46DE
:10167C0080BC704700E100E080B483B000AF03464B
:10168C003960FB7197F90730002B0ADB3B68DAB243
:10169C000C4997F907301201D2B20B4483F800239E
:1016AC000AE03B68DAB20849FB7903F00F03043B0C
:1016BC001201D2B20B441A7600BF0C37BD4680BC67
:1016CC00704700BF00E100E000ED00E080B489B09D
:1016DC0000AFF860B9607A60FB6803F00703FB6148
:1016EC00FB69C3F10703042B28BF0423BB61FB690F
:1016FC000433062B02D9FB69033B00E000237B611A
:10170C004FF0FF32BB6902FA03F3DA43BB681A40AD
:10171C007B699A404FF0FF317B6901FA03F3D9439F
:10172C007B680B40134318462437BD4680BC70477A
:10173C0080B582B000AF78607B68013BB3F1807FED
:10174C0001D301230FE00A4A7B68013B53600F2150
:10175C004FF0FF30FFF790FF054B00229A60044BCF
:10176C0007221A60002318460837BD4680BD00BF0B
:10177C0010E000E080B582B000AF78607868FFF7C9
:10178C002DFF00BF0837BD4680BD80B586B000AFC9
:10179C000346B9607A60FB7300237B61FFF742FF5D
:1017AC0078617A68B9687869FFF790FF024697F913
:1017BC000F3011461846FFF75FFF00BF1837BD46C4
:1017CC0080BD80B582B000AF0346FB7197F907303E
:1017DC001846FFF735FF00BF0837BD4680BD80B502
:1017EC0082B000AF78607868FFF7A2FF0346184616
:1017FC000837BD4680BD000080B48BB000AF786068
:10180C00396000237B6200233B6269E101227B6A21
:10181C0002FA03F3FB613B681B68FA691340BB6176
:10182C00BA69FB699A4240F058813B685B689A4AF6
:10183C0093425ED0984A934275D8984A934258D0B6
:10184C00964A93426FD8964A934252D0944A934206
:10185C0069D8944A93424CD0924A934263D8924AA4
:10186C00934246D0904A93425DD8122B2AD8122B21
:10187C0059D801A252F823F0FF180008D918000813
:10188C00EB1800082D19000833190008331900084B
:10189C0033190008331900083319000833190008EC
:1018AC0033190008331900083319000833190008DC
:1018BC00331900083319000833190008E11800081F
:1018CC00F5180008794A934213D02CE03B68DB688A
:1018DC003B6229E03B68DB6804333B6224E03B68F5
:1018EC00DB6808333B621FE03B68DB680C333B6210
:1018FC001AE03B689B68002B02D104233B6213E087
:10190C003B689B68012B05D108233B627B68FA6915
:10191C001A6109E008233B627B68FA695A6103E0AB
:10192C0000233B6200E000BFBB69FF2B01D87B6842
:10193C0001E07B6804337B61BB69FF2B02D87B6AB7
:10194C009B0002E07B6A083B9B003B617B691A6849
:10195C000F213B6901FA03F3DB431A40396A3B69F7
:10196C0001FA03F31A437B691A603B685B6803F066
:10197C008053002B00F0B1804D4B9B694C4A43F0D7
:10198C00010393614A4B9B6903F00103BB60BB6885
:10199C00484A7B6A9B08023352F82330FB607B6A0F
:1019AC0003F003039B000F2202FA03F3DB43FA68F4
:1019BC001340FB607B68404A934213D07B683F4ADC
:1019CC0093420DD07B683E4A934207D07B683D4AD8
:1019DC00934201D1032306E0042304E0022302E036
:1019EC00012300E000237A6A02F003029200934084
:1019FC00FA681343FB602F497B6A9B080233FA6831
:101A0C0041F823203B685B6803F48033002B06D03D
:101A1C002D4B1A682C49BB6913430B6006E02A4B0B
:101A2C001A68BB69DB43284913400B603B685B6851
:101A3C0003F40033002B06D0234B5A682249BB69B0
:101A4C0013434B6006E0204B5A68BB69DB431E49CD
:101A5C0013404B603B685B6803F48013002B06D08B
:101A6C00194B9A681849BB6913438B6006E0164BF7
:101A7C009A68BB69DB43144913408B603B685B6815
:101A8C0003F40013002B21D00F4BDA680E49BB690D
:101A9C001343CB6021E000BF000032100000311076
:101AAC000000221000002110000012100000111084
:101ABC00001002400000014000080140000C0140F1
:101ACC000010014000140140000401400B4BDA6887
:101ADC00BB69DB4309491340CB607B6A01337B62F2
:101AEC003B681A687B6A22FA03F3002B7FF48EAEF4
:101AFC0000BF00BF2C37BD4680BC704700040140BE
:101B0C0080B485B000AF78600B467B807B689A68A8
:101B1C007B881340002B02D00123FB7301E00023D0
:101B2C00FB73FB7B18461437BD4680BC704780B4F2
:101B3C0083B000AF78600B467B8013467B707B785C
:101B4C00002B03D07A887B681A6103E07B881A0427
:101B5C007B681A6100BF0C37BD4680BC7047000023
:101B6C0080B586B000AF78607B68002B01D1012373
:101B7C006CE27B681B6803F00103002B00F087808C
:101B8C00924B5B6803F00C03042B0CD08F4B5B68FF
:101B9C0003F00C03082B12D18C4B5B6803F48033DD
:101BAC00B3F5803F0BD1894B1B6803F40033002B3A
:101BBC006CD07B685B68002B68D1012346E27B68A4
:101BCC005B68B3F5803F06D1804B1B687F4A43F4BA
:101BDC00803313602EE07B685B68002B0CD17B4B51
:101BEC001B687A4A23F480331360784B1B68774A5E
:101BFC0023F4802313601DE07B685B68B3F5A02F92
:101C0C000CD1724B1B68714A43F4802313606F4BE9
:101C1C001B686E4A43F4803313600BE06B4B1B68FC
:101C2C006A4A23F480331360684B1B68674A23F4B9
:101C3C00802313607B685B68002B13D0FFF7A0FC3C
:101C4C00386108E0FFF79CFC02463B69D31A642B11
:101C5C0001D90323FAE15D4B1B6803F40033002B1D
:101C6C00F0D014E0FFF78CFC386108E0FFF788FC3B
:101C7C0002463B69D31A642B01D90323E6E1534B8B
:101C8C001B6803F40033002BF0D100E000BF7B682D
:101C9C001B6803F00203002B63D04C4B5B6803F012
:101CAC000C03002B0BD0494B5B6803F00C03082B87
:101CBC001CD1464B5B6803F48033002B16D1434B8D
:101CCC001B6803F00203002B05D07B681B69012BFA
:101CDC0001D00123BAE13D4B1B6823F0F8027B686D
:101CEC005B69DB00394913430B603AE07B681B6985
:101CFC00002B20D0364B01221A60FFF741FC3861D3
:101D0C0008E0FFF73DFC02463B69D31A022B01D9D0
:101D1C0003239BE12D4B1B6803F00203002BF0D037
:101D2C002A4B1B6823F0F8027B685B69DB002749B0
:101D3C0013430B6015E0264B00221A60FFF720FCC2
:101D4C00386108E0FFF71CFC02463B69D31A022BF2
:101D5C0001D903237AE11D4B1B6803F00203002B0E
:101D6C00F0D17B681B6803F00803002B3AD07B682A
:101D7C009B69002B19D0174B01221A60FFF700FC4E
:101D8C00386108E0FFF7FCFB02463B69D31A022BD3
:101D9C0001D903235AE10D4B5B6A03F00203002BBC
:101DAC00F0D0012000F0D8FA1CE00A4B00221A6097
:101DBC00FFF7E6FB38610FE0FFF7E2FB02463B69F9
:101DCC00D31A022B08D9032340E100BF00100240B4
:101DDC0000004242800442429E4B5B6A03F00203C5
:101DEC00002BE9D17B681B6803F00403002B00F087
:101DFC00A6800023FB75974BDB6903F08053002B07
:101E0C000DD1944BDB69934A43F08053D361914BD2
:101E1C00DB6903F08053BB60BB680123FB758E4B01
:101E2C001B6803F48073002B18D18B4B1B688A4AF8
:101E3C0043F480731360FFF7A3FB386108E0FFF7EE
:101E4C009FFB02463B69D31A642B01D90323FDE0A7
:101E5C00814B1B6803F48073002BF0D07B68DB682C
:101E6C00012B06D17B4B1B6A7A4A43F001031362A8
:101E7C002DE07B68DB68002B0CD1764B1B6A754A16
:101E8C0023F001031362734B1B6A724A23F00403A1
:101E9C0013621CE07B68DB68052B0CD16D4B1B6A55
:101EAC006C4A43F0040313626A4B1B6A694A43F0A1
:101EBC00010313620BE0674B1B6A664A23F00103B4
:101ECC001362644B1B6A634A23F0040313627B683E
:101EDC00DB68002B15D0FFF753FB38610AE0FFF7E6
:101EEC004FFB02463B69D31A41F28832934201D927
:101EFC000323ABE0574B1B6A03F00203002BEED01D
:101F0C0014E0FFF73DFB38610AE0FFF739FB0246AE
:101F1C003B69D31A41F28832934201D9032395E0ED
:101F2C004C4B1B6A03F00203002BEED1FB7D012B03
:101F3C0005D1484BDB69474A23F08053D3617B685A
:101F4C00DB69002B00F08180424B5B6803F00C03D3
:101F5C00082B61D07B68DB69022B46D13F4B0022FA
:101F6C001A60FFF70DFB386108E0FFF709FB02462A
:101F7C003B69D31A022B01D9032367E0354B1B684D
:101F8C0003F00073002BF0D17B681B6AB3F5803F24
:101F9C0008D1304B5B6823F400327B689B682D4979
:101FAC0013434B602B4B5B6823F474127B68196AE8
:101FBC007B685B6A0B43274913434B60274B012219
:101FCC001A60FFF7DDFA386108E0FFF7D9FA02462C
:101FDC003B69D31A022B01D9032337E01D4B1B6835
:101FEC0003F00073002BF0D02FE01C4B00221A6082
:101FFC00FFF7C6FA386108E0FFF7C2FA02463B6900
:10200C00D31A022B01D9032320E0124B1B6803F0D7
:10201C000073002BF0D118E07B68DB69012B01D138
:10202C00012313E00B4B5B68FB60FB6803F480320D
:10203C007B681B6A9A4206D1FB6803F470127B68BA
:10204C005B6A9A4201D0012300E00023184618373E
:10205C00BD4680BD0010024000700040600042424E
:10206C0080B584B000AF786039607B68002B01D1FB
:10207C000123D0E06A4B1B6803F007033A689A42CD
:10208C0010D9674B1B6823F0070265493B68134363
:10209C000B60634B1B6803F007033A689A4201D04C
:1020AC000123B8E07B681B6803F00203002B20D0EF
:1020BC007B681B6803F00403002B05D0594B5B684D
:1020CC00584A43F4E06353607B681B6803F00803D1
:1020DC00002B05D0534B5B68524A43F4605353605A
:1020EC00504B5B6823F0F0027B689B684D491343AF
:1020FC004B607B681B6803F00103002B40D07B68AE
:10210C005B68012B07D1474B1B6803F40033002B92
:10211C0015D101237FE07B685B68022B07D1414B13
:10212C001B6803F00073002B09D1012373E03D4BB6
:10213C001B6803F00203002B01D101236BE0394B28
:10214C005B6823F003027B685B68364913434B6082
:10215C00FFF716FAF8600AE0FFF712FA0246FB687E
:10216C00D31A41F28832934201D9032353E02D4B09
:10217C005B6803F00C027B685B689B009A42EBD1B6
:10218C00274B1B6803F007033A689A4210D2244B82
:10219C001B6823F0070222493B6813430B60204B5A
:1021AC001B6803F007033A689A4201D0012332E01E
:1021BC007B681B6803F00403002B08D0194B5B6889
:1021CC0023F4E0627B68DB68164913434B607B6841
:1021DC001B6803F00803002B09D0124B5B6823F437
:1021EC0060527B681B69DB000E4913434B6000F0A7
:1021FC0021F802460B4B5B681B0903F00F030A49DD
:10220C00CB5C22FA03F3094A1360094B1B6818468E
:10221C00FFF774F9002318461037BD4680BD00BF88
:10222C0000200240001002407C3E0008A800002064
:10223C00AC00002090B48AB000AF2A4B3C1D0FCBF1
:10224C0084E80F0040F201233B800023FB61002354
:10225C00BB6100237B6200237B6100233B62224B2A
:10226C005B68FB61FB6903F00C03042B02D0082BA9
:10227C0003D02DE01D4B3B622DE0FB699B0C03F062
:10228C000F0307F12802134413F8243C7B61FB690C
:10229C0003F48033002B13D0134B5B685B0C03F0FF
:1022AC00010307F12802134413F8283CBB617B6936
:1022BC000E4A02FB03F2BB69B2FBF3F37B6204E050
:1022CC007B690B4A02FB03F37B627B6A3B6202E095
:1022DC00064B3B6200BF3B6A18462837BD4690BC94
:1022EC00704700BF6C3E00080010024000127A00DC
:1022FC0000093D0080B400AF024B1B681846BD4678
:10230C0080BC7047A800002080B500AFFFF7F2FF3B
:10231C000246054B5B681B0A03F007030349CB5CC1
:10232C0022FA03F3184680BD001002408C3E0008D0
:10233C0080B500AFFFF7DEFF0246054B5B68DB0A9A
:10234C0003F007030349CB5C22FA03F3184680BD64
:10235C00001002408C3E000880B485B000AF78605D
:10236C000A4B1B680A4AA2FB03235B0A7A6802FB2E
:10237C0003F3FB6000BFFB685A1EFA60002BF9D117
:10238C0000BF00BF1437BD4680BC7047A8000020BA
:10239C00D34D621080B582B000AF78607B68002BA3
:1023AC0001D1012341E07B6893F83D30DBB2002B77
:1023BC0006D17B68002283F83C207868FEF73AFF50
:1023CC007B68022283F83D207B681A687B680433A3
:1023DC001946104600F028FC7B68012283F8462041
:1023EC007B68012283F83E207B68012283F83F2022
:1023FC007B68012283F840207B68012283F841200E
:10240C007B68012283F842207B68012283F84320F9
:10241C007B68012283F844207B68012283F84520E5
:10242C007B68012283F83D20002318460837BD46FF
:10243C0080BD000080B485B000AF78607B6893F8F5
:10244C003D30DBB2012B01D001233AE07B68022244
:10245C0083F83D207B681B68DA687B681B6842F058
:10246C000102DA607B681B68184A93420ED07B68C5
:10247C001B68B3F1804F09D07B681B68144A9342E8
:10248C0004D07B681B68134A934211D17B681B688C
:10249C009B6803F00703FB60FB68062B10D07B687E
:1024AC001B681A687B681B6842F001021A6007E01F
:1024BC007B681B681A687B681B6842F001021A6013
:1024CC00002318461437BD4680BC7047002C0140D1
:1024DC00000400400008004080B582B000AF786076
:1024EC007B68002B01D1012341E07B6893F83D30E0
:1024FC00DBB2002B06D17B68002283F83C20786885
:10250C0000F039F87B68022283F83D207B681A685A
:10251C007B6804331946104600F086FB7B68012269
:10252C0083F846207B68012283F83E207B680122D9
:10253C0083F83F207B68012283F840207B680122CE
:10254C0083F841207B68012283F842207B680122BA
:10255C0083F843207B68012283F844207B680122A6
:10256C0083F845207B68012283F83D200023184620
:10257C000837BD4680BD80B483B000AF786000BF23
:10258C000C37BD4680BC704780B584B000AF786016
:10259C0039603B68002B09D17B6893F83E30DBB285
:1025AC00012B14BF01230023DBB222E03B68042B78
:1025BC0009D17B6893F83F30DBB2012B14BF0123A8
:1025CC000023DBB215E03B68082B09D17B6893F83C
:1025DC004030DBB2012B14BF01230023DBB208E037
:1025EC007B6893F84130DBB2012B14BF012300232D
:1025FC00DBB2002B01D001235EE03B68002B04D141
:10260C007B68022283F83E2013E03B68042B04D144
:10261C007B68022283F83F200BE03B68082B04D137
:10262C007B68022283F8402003E07B68022283F857
:10263C0041207B681B6801223968184600F074FD44
:10264C007B681B681E4A934207D17B681B685A6CD7
:10265C007B681B6842F400425A647B681B68184A0A
:10266C0093420ED07B681B68B3F1804F09D07B6816
:10267C001B68144A934204D07B681B68124A93422D
:10268C0011D17B681B689B6803F00703FB60FB6838
:10269C00062B10D07B681B681A687B681B6842F09D
:1026AC0001021A6007E07B681B681A687B681B686C
:1026BC0042F001021A60002318461037BD4680BD57
:1026CC00002C0140000400400008004080B582B09E
:1026DC0000AF78607B681B681B6903F00203022B58
:1026EC0022D17B681B68DB6803F00203022B1BD131
:1026FC007B681B686FF002021A617B6801221A77F3
:10270C007B681B689B6903F00303002B03D078687C
:10271C0000F06FFA05E0786800F062FA786800F073
:10272C0071FA7B6800221A777B681B681B6903F0BF
:10273C000403042B22D17B681B68DB6803F00403C1
:10274C00042B1BD17B681B686FF004021A617B6839
:10275C0002221A777B681B689B6903F44073002B79
:10276C0003D0786800F045FA05E0786800F038FA94
:10277C00786800F047FA7B6800221A777B681B6840
:10278C001B6903F00803082B22D17B681B68DB68EC
:10279C0003F00803082B1BD17B681B686FF0080241
:1027AC001A617B6804221A777B681B68DB6903F06B
:1027BC000303002B03D0786800F01BFA05E078685F
:1027CC0000F00EFA786800F01DFA7B6800221A7788
:1027DC007B681B681B6903F01003102B22D17B68EC
:1027EC001B68DB6803F01003102B1BD17B681B6884
:1027FC006FF010021A617B6808221A777B681B68DD
:10280C00DB6903F44073002B03D0786800F0F1F916
:10281C0005E0786800F0E4F9786800F0F3F97B687B
:10282C0000221A777B681B681B6903F00103012BDC
:10283C000ED17B681B68DB6803F00103012B07D109
:10284C007B681B686FF001021A617868FEF74AFC1E
:10285C007B681B681B6903F08003802B0ED17B689F
:10286C001B68DB6803F08003802B07D17B681B6837
:10287C006FF080021A61786800F0E1FC7B681B68DD
:10288C001B6903F04003402B0ED17B681B68DB688F
:10289C0003F04003402B07D17B681B686FF04002AC
:1028AC001A61786800F0B7F97B681B681B6903F044
:1028BC002003202B0ED17B681B68DB6803F0200300
:1028CC00202B07D17B681B686FF020021A61786897
:1028DC0000F0ACFC00BF0837BD4680BD80B584B0AD
:1028EC0000AFF860B9607A60FB6893F83C30012B5C
:1028FC0001D10223ACE0FB68012283F83C207B6809
:10290C000C2B00F29F8001A252F823F04D290008F5
:10291C00512A0008512A0008512A00088D29000864
:10292C00512A0008512A0008512A0008CF29000812
:10293C00512A0008512A0008512A00080F2A0008C1
:10294C00FB681B68B968184600F0D0F9FB681B6877
:10295C009A69FB681B6842F008029A61FB681B6865
:10296C009A69FB681B6822F004029A61FB681B6879
:10297C009969BB681A69FB681B680A439A6162E033
:10298C00FB681B68B968184600F016FAFB681B68F0
:10299C009A69FB681B6842F400629A61FB681B68C9
:1029AC009A69FB681B6822F480629A61FB681B6859
:1029BC009969BB681B691A02FB681B680A439A6118
:1029CC0041E0FB681B68B968184600F05FFAFB68C9
:1029DC001B68DA69FB681B6842F00802DA61FB6865
:1029EC001B68DA69FB681B6822F00402DA61FB6879
:1029FC001B68D969BB681A69FB681B680A43DA61F2
:102A0C0021E0FB681B68B968184600F0A9FAFB685E
:102A1C001B68DA69FB681B6842F40062DA61FB68C8
:102A2C001B68DA69FB681B6822F48062DA61FB6858
:102A3C001B68D969BB681B691A02FB681B680A43CF
:102A4C00DA6100E000BFFB68002283F83C20002321
:102A5C0018461037BD4680BD80B584B000AF786095
:102A6C0039607B6893F83C30012B01D10223B3E031
:102A7C007B68012283F83C207B68022283F83D208E
:102A8C007B681B689B68FB60FB6823F07703FB602B
:102A9C00FB6823F47F43FB607B681B68FA689A60D1
:102AAC003B681B68B3F5005F3ED0B3F5005F00F2E6
:102ABC008780B3F5805F00F08580B3F5805F7FD8A9
:102ACC00702B1AD0702B7BD8602B50D0602B77D802
:102ADC00502B3CD0502B73D8402B58D0402B6FD858
:102AEC00302B64D0302B6BD8202B60D0202B67D8A8
:102AFC00002B5CD0102B5AD062E07B6818683B68C6
:102B0C0099683B685A683B68DB6800F0EEFA7B68B2
:102B1C001B689B68FB60FB6843F07703FB607B687A
:102B2C001B68FA689A604EE07B6818683B68996885
:102B3C003B685A683B68DB6800F0D7FA7B681B6817
:102B4C009A687B681B6842F480429A603BE07B6821
:102B5C0018683B6859683B68DB681A4600F04EFA07
:102B6C007B681B685021184600F0A5FA2BE07B68A7
:102B7C0018683B6859683B68DB681A4600F06CFAC9
:102B8C007B681B686021184600F095FA1BE07B6897
:102B9C0018683B6859683B68DB681A4600F02EFAE7
:102BAC007B681B684021184600F085FA0BE07B68B7
:102BBC001A683B681B681946104600F07CFA02E064
:102BCC0000BF00E000BF7B68012283F83D207B68DA
:102BDC00002283F83C20002318461037BD4680BDE8
:102BEC0080B483B000AF786000BF0C37BD4680BCAA
:102BFC00704780B483B000AF786000BF0C37BD461F
:102C0C0080BC704780B483B000AF786000BF0C37D5
:102C1C00BD4680BC704780B483B000AF786000BF05
:102C2C000C37BD4680BC704780B485B000AF78606F
:102C3C0039607B681B68FB607B68294A93420BD028
:102C4C007B68B3F1804F07D07B68264A934203D050
:102C5C007B68254A934208D1FB6823F07003FB6024
:102C6C003B685B68FA681343FB607B681C4A9342C1
:102C7C000BD07B68B3F1804F07D07B68194A934225
:102C8C0003D07B68184A934208D1FB6823F4407345
:102C9C00FB603B68DB68FA681343FB60FB6823F05E
:102CAC0080023B685B691343FB607B68FA681A60BF
:102CBC003B689A687B68DA623B681A687B689A6240
:102CCC007B68074A934203D13B681A697B681A6395
:102CDC007B6801225A6100BF1437BD4680BC704727
:102CEC00002C0140000400400008004080B487B074
:102CFC0000AF786039607B681B6A23F001027B6847
:102D0C001A627B681B6A7B617B685B683B617B68D2
:102D1C009B69FB60FB6823F07003FB60FB6823F08E
:102D2C000303FB603B681B68FA681343FB607B6919
:102D3C0023F002037B613B689B687A6913437B61D8
:102D4C007B681C4A93420CD17B6923F008037B619E
:102D5C003B68DB687A6913437B617B6923F004036E
:102D6C007B617B68134A934211D13B6923F48073D6
:102D7C003B613B6923F400733B613B685B693A69D7
:102D8C0013433B613B689B693A6913433B617B6826
:102D9C003A695A607B68FA689A613B685A687B6842
:102DAC005A637B687A691A6200BF1C37BD4680BCC7
:102DBC00704700BF002C014080B487B000AF786032
:102DCC0039607B681B6A23F010027B681A627B688F
:102DDC001B6A7B617B685B683B617B689B69FB6002
:102DEC00FB6823F4E043FB60FB6823F44073FB6057
:102DFC003B681B681B02FA681343FB607B6923F07A
:102E0C0020037B613B689B681B017A6913437B61E0
:102E1C007B681D4A93420DD17B6923F080037B6153
:102E2C003B68DB681B017A6913437B617B6923F088
:102E3C0040037B617B68144A934213D13B6923F4B2
:102E4C0080633B613B6923F400633B613B685B69D6
:102E5C009B003A6913433B613B689B699B003A6951
:102E6C0013433B617B683A695A607B68FA689A61E4
:102E7C003B685A687B689A637B687A691A6200BF00
:102E8C001C37BD4680BC7047002C014080B487B015
:102E9C0000AF786039607B681B6A23F480727B68B2
:102EAC001A627B681B6A7B617B685B683B617B6831
:102EBC00DB69FB60FB6823F07003FB60FB6823F0AD
:102ECC000303FB603B681B68FA681343FB607B6978
:102EDC0023F400737B613B689B681B027A69134384
:102EEC007B617B681D4A93420DD17B6923F400639F
:102EFC007B613B68DB681B027A6913437B617B69EE
:102F0C0023F480637B617B68144A934213D13B6941
:102F1C0023F480533B613B6923F400533B613B68D2
:102F2C005B691B013A6913433B613B689B691B015D
:102F3C003A6913433B617B683A695A607B68FA686B
:102F4C00DA613B685A687B68DA637B687A691A6273
:102F5C0000BF1C37BD4680BC704700BF002C014031
:102F6C0080B487B000AF786039607B681B6A23F44B
:102F7C0080527B681A627B681B6A3B617B685B686A
:102F8C007B617B68DB69FB60FB6823F4E043FB60DF
:102F9C00FB6823F44073FB603B681B681B02FA68F8
:102FAC001343FB603B6923F400533B613B689B6814
:102FBC001B033A6913433B617B680F4A934209D167
:102FCC007B6923F480437B613B685B699B017A6975
:102FDC0013437B617B687A695A607B68FA68DA61B3
:102FEC003B685A687B681A647B683A691A6200BF4E
:102FFC001C37BD4680BC7047002C014080B487B0A4
:10300C0000AFF860B9607A60FB681B6A7B61FB6893
:10301C001B6A23F00102FB681A62FB689B693B6127
:10302C003B6923F0F0033B617B681B013A69134356
:10303C003B617B6923F00A037B617A69BB681343AC
:10304C007B61FB683A699A61FB687A691A6200BF16
:10305C001C37BD4680BC704780B487B000AFF860A9
:10306C00B9607A60FB681B6A23F01002FB681A6275
:10307C00FB689B697B61FB681B6A3B617B6923F482
:10308C0070437B617B681B037A6913437B613B69EB
:10309C0023F0A0033B61BB681B013A6913433B61FE
:1030AC00FB687A699A61FB683A691A6200BF1C373F
:1030BC00BD4680BC704780B485B000AF7860396085
:1030CC007B689B68FB60FB6823F07003FB603A68CD
:1030DC00FB68134343F00703FB607B68FA689A6054
:1030EC0000BF1437BD4680BC704780B487B000AFBA
:1030FC00F860B9607A603B60FB689B687B617B69B8
:10310C0023F47F437B613B681A027B681A43BB68DC
:10311C0013437A6913437B61FB687A699A6000BF39
:10312C001C37BD4680BC704780B487B000AFF860D8
:10313C00B9607A60BB6803F01F03012202FA03F343
:10314C007B61FB681A6A7B69DB431A40FB681A6275
:10315C00FB681A6ABB6803F01F03796801FA03F372
:10316C001A43FB681A6200BF1C37BD4680BC70470F
:10317C0080B485B000AF786039607B6893F83C30E0
:10318C00012B01D1022346E07B68012283F83C200D
:10319C007B68022283F83D207B681B685B68FB60C0
:1031AC007B681B689B68BB60FB6823F07003FB604B
:1031BC003B681B68FA681343FB607B681B68FA6802
:1031CC005A607B681B68164A93420ED07B681B685A
:1031DC00B3F1804F09D07B681B68124A934204D02C
:1031EC007B681B68104A93420CD1BB6823F08003A8
:1031FC00BB603B685B68BA681343BB607B681B6849
:10320C00BA689A607B68012283F83D207B680022B3
:10321C0083F83C20002318461437BD4680BC704709
:10322C00002C0140000400400008004080B483B032
:10323C0000AF786000BF0C37BD4680BC704780B4CF
:10324C0083B000AF786000BF0C37BD4680BC7047C0
:10325C0080B582B000AF78607B68002B01D1012370
:10326C003FE07B6893F83D30DBB2002B06D17B68E6
:10327C00002283F83C207868FEF74EF87B68242205
:10328C0083F83D207B681B68DA687B681B6822F436
:10329C000052DA60786800F0D5F87B681B681A6910
:1032AC007B681B6822F490421A617B681B685A6920
:1032BC007B681B6822F02A025A617B681B68DA68FB
:1032CC007B681B6842F40052DA607B6800221A6447
:1032DC007B68202283F83D207B68202283F83E20E7
:1032EC00002318460837BD4680BD80B485B000AFBA
:1032FC00F860B9601346FB80FB6893F83D30DBB295
:10330C00202B30D1BB68002B02D0FB88002B01D1C5
:10331C00012329E0FB6893F83C30012B01D10223F7
:10332C0022E0FB68012283F83C20FB68BA681A6231
:10333C00FB68FA889A84FB68FA88DA84FB680022B6
:10334C001A64FB68212283F83D20FB68002283F875
:10335C003C20FB681B68DA68FB681B6842F0800243
:10336C00DA60002300E0022318461437BD4680BC07
:10337C00704780B584B000AFF860B9601346FB802D
:10338C00FB6893F83E30DBB2202B1DD1BB68002BC1
:10339C0002D0FB88002B01D1012316E0FB6893F8C7
:1033AC003C30012B01D102230FE0FB68012283F892
:1033BC003C20FB6800221A63FB881A46B968F8683F
:1033CC0000F007F8034600E0022318461037BD460C
:1033DC0080BD80B485B000AFF860B9601346FB8047
:1033EC00FB68BA689A62FB68FA889A85FB68FA8867
:1033FC00DA85FB6800221A64FB68222283F83E20DF
:10340C00FB68002283F83C20FB681B68DA68FB68C9
:10341C001B6842F48072DA60FB681B685A69FB68AF
:10342C001B6842F001025A61FB681B68DA68FB6892
:10343C001B6842F02002DA60002318461437BD46A0
:10344C0080BC704780B584B000AF78607B681B6827
:10345C001B6923F440517B68DA687B681B680A435C
:10346C001A617B689A687B681B691A437B685B6985
:10347C001343BB607B681B68DB6823F4B05323F0F9
:10348C000C037A681268B9680B43D3607B681B68BD
:10349C005B6923F440717B689A697B681B680A43FB
:1034AC005A617B681B682C4A934203D1FEF740FF9C
:1034BC00F86002E0FEF728FFF860FA6813469B00FC
:1034CC0013449A001A447B685B689B00B2FBF3F3CD
:1034DC00224AA2FB03235B091901FA6813469B00DD
:1034EC0013449A001A447B685B689B00B2FBF3F2AE
:1034FC001A4BA3FB02035B09642000FB03F3D31AF2
:10350C001B013233154AA2FB03235B0903F0F003C2
:10351C001944FA6813469B0013449A001A447B68BA
:10352C005B689B00B2FBF3F20C4BA3FB02035B0941
:10353C00642000FB03F3D31A1B013233074AA2FBAE
:10354C0003235B0903F00F027B681B680A449A6033
:10355C0000BF1037BD4680BD003801401F85EB51C0
:10356C00014B1868704700BFB400002070B50026EE
:10357C000C4D0D4C641BA410A64209D100F05CFC50
:10358C0000260A4D0A4C641BA410A64205D170BD3E
:10359C0055F8043B98470136EEE755F8043B98473D
:1035AC000136F2E7C83E0008C83E0008C83E0008D5
:1035BC00CC3E000803460244934200D1704703F806
:1035CC00011BF9E70EB46FF0004100B59CB01DABC8
:1035DC0002900690079104910848094953F8042B6E
:1035EC000591006802A9019300F068F80022029B83
:1035FC001A701CB05DF804EB03B07047B4000020E7
:10360C000802FFFF2DE9F0478E6882469E420C4669
:10361C0090461F4638D88A8912F4906F32D02568AC
:10362C0009690133A5EB010965694B4405EB4505B7
:10363C0005EBD5756D109D4238BF1D46530531D530
:10364C00294600F053FB064650B90C234FF0FF30CF
:10365C00CAF80030A38943F04003A381BDE8F0878A
:10366C004A46216900F0CEFAA38923F4906343F013
:10367C008003A38126614E4426603E466561A5EB1E
:10368C000905A560BE4200D93E4632464146206837
:10369C0000F0C6FAA36822689B1B32440020A3608A
:1036AC002260DBE72A4600F07BFB06460028E1D1CE
:1036BC005046216900F0CEFAC7E700002DE9F04F23
:1036CC0098468B8907461B060D4614469DB00ED5B1
:1036DC000B6963B9402100F009FB2860286120B90F
:1036EC000C233B604FF0FF30D1E040236B61002393
:1036FC00099320238DF8293030234FF00109CDF8A0
:10370C000C80DFF8A4818DF82A3023469A4613F8F2
:10371C00012B0AB1252AF9D1BAEB040B0BD05B466D
:10372C00224629463846FFF76DFF013000F0AA808B
:10373C00099A5A4409929AF80030002B00F0A280A2
:10374C0000234FF0FF32CDE905230AF1010A04935F
:10375C0007938DF853301A935446052214F8011B25
:10376C00514800F041FA049AD8B9D00644BF20233E
:10377C008DF85330110744BF2B238DF853309AF832
:10378C0000302A2B15D0544600204FF00A0C079A13
:10379C00214611F8013B303B092B4ED9B0B10792B1
:1037AC0014E0A0EB080309FA03F31343A2460493B5
:1037BC00D2E7039B191D1B680391002BBBBF5B4217
:1037CC0042F0020207930793B8BF049223782E2B82
:1037DC000CD163782A2B35D1039B02341A1D1B683C
:1037EC000392002BB8BF4FF0FF330593DFF8C8A04E
:1037FC0003225046217800F0F7F940B14023A0EBAA
:10380C000A0003FA00F0049B01340343049314F8F8
:10381C00011B062225488DF8281000F0E5F9002838
:10382C0038D0234B1BBB039B073323F00703083310
:10383C000393099B3344099367E70C4601200CFB67
:10384C000232A5E700234FF00A0C19460134059308
:10385C00204610F8012B303A092A03D9002BC5D089
:10386C000591C3E7044601230CFB0121F0E703ABF0
:10387C0000932A4638460F4B04A9AFF30080421C34
:10388C000646D6D1AB895B063FF52CAF09981DB027
:10389C00BDE8F08F03AB00932A463846054B04A9CC
:1038AC0000F07CF8EBE700BF943E00089E3E000859
:1038BC0000000000113600089A3E00082DE9F04780
:1038CC00164699468A680B6907469342B8BF134659
:1038DC00336091F843200C46DDF820800AB10133A7
:1038EC0033602368990642BF33680233336025681E
:1038FC0015F0060506D104F1190AE36832689B1A23
:10390C00AB4228DC94F84320131E226818BF012315
:10391C0092062DD44946384604F14302C047013083
:10392C0020D02368E56803F00603042B18BF00259C
:10393C0032684FF00006A36808BFAD1A226908BFB1
:10394C0025EAE5759342C4BF9B1AED181A34B542AB
:10395C001AD1002008E00123524649463846C04798
:10396C00013003D14FF0FF30BDE8F0870135C4E7DB
:10397C003020E11881F843005A1C94F84510224479
:10398C00023382F84310C5E70123224649463846E4
:10399C00C0470130E6D00136D9E700002DE9FF47DA
:1039AC000C46277E9146782F80469A460C9904F156
:1039BC00430207D8622F0AD8002F00F0D980582F65
:1039CC0000F0A48004F1420684F842703AE0A7F1BA
:1039DC006303152BF6D801A050F823F0413A0008E8
:1039EC00553A0008D1390008D1390008D1390008FE
:1039FC00D1390008553A0008D1390008D1390008EE
:103A0C00D1390008D1390008633B0008853A000819
:103A1C00453B0008D1390008D1390008853B000826
:103A2C00D1390008853A0008D1390008D13900088D
:103A3C004D3B00080B6804F142061A1D1B680A6016
:103A4C0084F842300123A4E0256808682E0600F1B2
:103A5C0004030AD505680B60002D03DA2D236D4293
:103A6C0084F843300A235E4819E015F0400F0568CE
:103A7C000B6018BF2DB2EFE70B682568181D0860A6
:103A8C00280601D51D6802E06906FBD51D886F2F3D
:103A9C000CBF08230A235248002184F8431066689F
:103AAC00002EA8BF2168A660A4BF21F004012160EC
:103ABC000DB9002E4DD01646B5FBF3F103FB115793
:103ACC00C75D06F8017D2F46BB420D46F4D9082B85
:103ADC000BD12368DF0708D5236961689942DEBFE3
:103AEC00302306F8013C06F1FF36921B22614B464F
:103AFC0021464046CDF800A003AAFFF7DFFE0130B7
:103B0C004CD14FF0FF3004B0BDE8F087344884F856
:103B1C0045700E68236856F8045B1F060E6014D5BA
:103B2C00D90744BF43F0200323601DB9236823F059
:103B3C00200323601023AFE7236843F020032360A6
:103B4C007823284884F84530E3E75E0648BFADB2D9
:103B5C00E6E71646BBE70B6826681D1D60690D601D
:103B6C0035061B6801D5186002E07106FBD518807C
:103B7C00002316462361BAE70B681A1D0A601E68FB
:103B8C0000213046626800F02FF808B1801B60609D
:103B9C0063682361002384F84330A8E73246494622
:103BAC0040462369D0470130ABD023689B0713D420
:103BBC00E068039B9842B8BF1846A4E7012332463D
:103BCC0049464046D04701309BD00135E368039904
:103BDC005B1AAB42F2DCEBE7002504F11906F5E7C2
:103BEC00A53E0008B63E0008034610B5C9B2024413
:103BFC009342184601D1002003E0047801338C4233
:103C0C00F6D110BD0A44914200F1FF3300D1704748
:103C1C0010B511F8014B914203F8014FF9D110BDC9
:103C2C00884210B501EB020402D98442234607D81E
:103C3C00431EA14208D011F8012B03F8012FF8E71D
:103C4C00014602448A4200D110BD13F8014D02F81E
:103C5C00014DF7E738B50546002943D051F8043C2F
:103C6C000C1F002BB8BFE41800F0D0F81E4A1368E4
:103C7C00104633B9636014602846BDE8384000F044
:103C8C00CBB8A3420AD921686218934201BF1A68C3
:103C9C005B685218226063600460EDE71A465B684B
:103CAC000BB1A342FAD911685018A0420BD120686D
:103CBC000144501883421160DED118685B680144DE
:103CCC0011605360D8E702D90C232B60D4E720682D
:103CDC0021188B4201BF19685B6809182160636069
:103CEC005460C9E738BD00BF88010020F8B5CD1C71
:103CFC0025F0030508350C2D38BF0C25002D064684
:103D0C0001DBA94203D90C2333600020F8BD00F07D
:103D1C007DF821490A6814469CB9204F3B6823B9A9
:103D2C002146304600F062F838602946304600F0F3
:103D3C005DF8431C23D10C233046336000F06CF843
:103D4C00E3E723685B1B17D40B2B03D923601C44BC
:103D5C00256004E06368A2420CBF0B6053603046E0
:103D6C0000F05AF804F10B00231D20F00700C21AD2
:103D7C00CCD01B1AA350C9E722466468CCE7C41CFC
:103D8C0024F00304A042E3D0211A304600F02EF8B0
:103D9C000130DDD1CFE700BF880100208C0100206D
:103DAC00F8B5074614460E4621B91146BDE8F84051
:103DBC00FFF79CBF22B9FFF74DFF25462846F8BDFB
:103DCC0000F030F8A0420FD221463846FFF78EFFA4
:103DDC0005460028F2D031462246FFF713FF314644
:103DEC003846FFF737FFE9E73546E7E738B50023F4
:103DFC00054D044608462B60FDF708FB431C02D119
:103E0C002B6803B1236038BD9C020020014800F0F0
:103E1C0011B800BFA4020020014800F00CB800BF8C
:103E2C00A402002051F8043C181F002BBCBF0B58F7
:103E3C00C018704770477047F8B500BFF8BC08BC95
:103E4C009E467047F8B500BFF8BC08BC9E4670474C
:103E5C0021375345473A25642564230D0A00000099
:103E6C0002030405060708090A0B0C0D0E0F1010AF
:103E7C00000000000000000001020304060708090E
:103E8C000000000001020304232D302B2000686C7D
:103E9C004C00656667454647003031323334353661
:103EAC00373839414243444546003031323334359A
:0C3EBC00363738396162636465660000C7
:043EC80031010008BC
:043ECC000D010008DC
:103ED00001000000000000000000000000000000E1
:103EE00001000000000000000000000000000000D1
:103EF00001000000000000000000000000000000C1
:103F000001000000000000000000000000000000B0
:103F100001000000E8030000000801400008014023
:103F2000000C0140000801400200100001000100E7
:103F300000080140000C0140000C0140000C014051
:103F4000000C01400008014000040800200010009F
:103F5000000400010A00000019000000DC05000058
:103F6000900100004C0400002C0100000000000043
:103F700000000000000000000024F4001000000019
:103F800001000000B8000020000000000000000058
:103F90000000000000000000000000000000000021
:103FA0000000000000000000000000000000000011
:103FB0000000000000000000000000000000000001
:103FC00000000000000000000000000000000000F1
:103FD00000000000000000000000000000000000E1
:083FE0000000000000000000D9
:04000005080014914A
:00000001FF
